:02000002B0004C
:1040000000400B00B0A50B00000006000C000502EC
:084010000401E50C00000000B2
:044018003C900B00CD
:1040200009480A49884208B505D0094A824202D0A7
:10403000121A04F0A7FE0748074A0021121A04F0DA
:10404000AFFE014808BD00BF74E5032018A50B00B2
:10405000E4E50320E4E50320EDE7032070B5074E17
:10406000074C03F0C1FFA41BA4080025AC4200D1FB
:1040700070BD56F8043B98470135F7E7C8A40B001C
:10408000ECA40B0000F060BF08B501F081F8BDE8BA
:10409000084003F061BF02F043BF02F041BF02F0ED
:1040A00047BF000008B5034A03490C2002F08CFE0C
:1040B000FEE700BF396A0B0050900B000078B0FAA1
:1040C00080F04009704701230370704770B50C1EE3
:1040D000064615460BDA0A2A09D12D2103F0B0F95C
:1040E0006142EAB23046BDE8704003F0C2B92146F1
:1040F000F7E7000008B502F0A7FC034B1860BDE825
:10410000084002F09DBE00BF28E7032003682BB1E2
:104110004268934202D2184604F02CBE0020704739
:1041200038B50568044645B143689D4205D2284626
:1041300004F076FE013005442560204638BDF8B510
:10414000044647680D4621B903687A1C4260D95578
:10415000F8BD084604F064FEA368461CF2199A42B2
:10416000F6D8206832462946384404F00BFE6068D1
:1041700030446060ECE7000038B504460B46D0E9F7
:1041800001012568044A091A284402F0D9FE63682F
:1041900001300344636038BD65900B0038B50446B8
:1041A0000B46D0E901012568044A091A284402F0A7
:1041B000C7FE636801300344636038BD68900B003C
:1041C00010B5086804F0D6FD012874D1082003F06A
:1041D000A5FF01284CD0072003F0A0FF012849D0FB
:1041E000062003F09BFF01280CBF62246E240121EE
:1041F000082003F07AFF0021072003F076FF00215A
:10420000062003F072FF4FF47A7002F0CDFE002119
:10421000082003F06AFF0121072003F066FF4FF436
:104220007A7002F0C1FE0021072003F05EFF012139
:10423000062003F05AFF4FF47A7002F0B5FE012118
:10424000072003F052FF0121082003F04EFF40F643
:10425000B83002F0A9FE722C0ED10121082003F023
:1042600044FF0021072003F040FF002106200FE05B
:104270007224BCE76724BAE7672C0DD1012107201F
:1042800003F033FF0021062003F02FFF0021082058
:10429000BDE8104003F029BF622C0AD1012106209D
:1042A00003F023FF0021082003F01FFF0021072057
:1042B000EEE70021D2E710BD08B500234377006880
:1042C00003F0ACFCBDE8084002F0E3BA2DE9F0438E
:1042D0008F188FB0B942CDE905170646894690463A
:1042E00080F0C28005A80D88FFF71AFF0368BB4263
:1042F00080F0BA8005980378412B49D1013004F051
:1043000039FD052837DDFF2447F276239D4200F072
:10431000D38041D847F261239D4200F0A88047F244
:1043200064239D426BD046F670539D4241D1784D37
:10433000784EDFF8F4810598B84280F095800378D4
:10434000412B4BD1013004F015FD052839DDFF2448
:1043500005A8FFF7E5FEDDF814902946484604F06D
:1043600055FD014600283DD1204603F0ADFE05A8CD
:10437000FFF7D6FEDFE70598013004F0FBFC0028CC
:10438000C1DB0598013004F0F5FC0E30C4B2BBE788
:1043900005A8FFF7BBFEF9E747F264739D424FD0D3
:1043A00047F276739D4200F0978047F261739D4219
:1043B0006FD00023CDE9013302220092728B19469F
:1043C0003AE00598013004F0D5FC0028BFDB0598E1
:1043D000013004F0CFFC0E30C4B2B9E705A8FFF7F6
:1043E00095FEF9E73146484604F010FD28B14146F4
:1043F000484604F00BFD0028B9D10121B4E70AAB0F
:104400004549079307A810230025CDE90853FFF776
:1044100096FE07A82146FFF7AFFE204603F07EFE7A
:10442000014607A8FFF7BAFE089BCDE90155013BFD
:104430000093079B2A461421304600F083FA13E0CC
:1044400005A8FFF76DFE03689F420DD9A4B20121B4
:10445000204603F039FE05A8FFF758FE011E18BFDD
:104460000121204603F041FE0FB0BDE8F0830AAB06
:10447000079307A8102329490025CDE90853FFF722
:104480005EFE07A82146FFF777FE204603F059FE9F
:10449000C6E705A8FFF744FE03689F42E4D9A4B22B
:1044A0000121204603F010FE05A8FFF72FFE01466C
:1044B000204603F05DFED7E720468DF8284002F045
:1044C000E9F903460AA823B1154A934201D0984757
:1044D000CAE702F0DCF9C7E705A8FFF721FE059B54
:1044E0008DF81C40A3EB0901A8EB01012046CDE9A2
:1044F0000A310C9102F0D8F903460AA907A823B1A2
:10450000084A934201D09847AEE702F0C1F9ABE701
:104510006C900B006F900B0077900B007A900B0063
:104520008F680B0091680B0073900B002DE9F04130
:104530008CB004AF044605220068391D03F0B5F8BD
:1045400098B3052804D000202037BD46BDE8F0818F
:10455000B7F805305BBA9AB2A7F80530B7F807305C
:104560005BBA1FFA83F8A7F80730002AEBD03B7933
:1045700023BB02F08AF90246E060607FB7F807309B
:10458000C0B9B7F80510012914D1092B0FD0C82BD9
:1045900001D0042BD8D1012562612046657700F057
:1045A0007FFAFFF7A7FD02F074F90120CCE703239F
:1045B0006377C9E7581F18BF0120C5E7B8F5806FBA
:1045C00003D92046FFF778FEEFE708F108036E46AF
:1045D000DB08A6EBC3039D4604AD2068424629468E
:1045E00003F063F880454FF000007FD1B7F8073043
:1045F000E85402F04AF93B79E060142B00F0A68001
:1046000048D80F2B00F0A28007D8022B48D0062BE9
:1046100051D02046FFF750FE58E0112BF9D100236E
:104620003B70B7F807302B449D42C7E903534DD286
:1046300007F10C00D5F80080FFF772FDFB68B7F8B2
:1046400007105D1B4D1BC7E905357B68FD61C3F392
:104650000F236383644B984500F0BF8000F28C8089
:10466000A3F57F236FF400721344984500F09D80FA
:1046700079D8A3F50033063B984500F09C8003F5FC
:104680000033033398456BD107F11401384602F02B
:10469000FFF865E0292B1BD0372B17D01D2BB8D185
:1046A000637F43B901236377204600F0F9F9FFF7F0
:1046B00021FD02F0EEF80023C821B7F80520009193
:1046C000CDE901331946204600F03CF901200DE008
:1046D000A3681BB9402002F023FCA060B7F8078054
:1046E000A8444545C7E9055802D30020B5462BE745
:1046F00029464022A06804F09BFBA368002583F8AC
:104700003F5007F11400FFF70BFD036898451BD9D4
:10471000786920B1BB69984214D204F02FFB85B2AE
:10472000206803F07BFA2368A2685A631D87002380
:10473000637702F0AAF8A0F59C500838C4E903009A
:104740006061C3E72846EAE75025E9E77B68B7F8E8
:104750000720C3F30F23638329462046FFF7B6FDE6
:1047600000236383B2E7214B9845F9D107F1140187
:10477000384602F08DF8F3E71D4B984521D003F140
:104780009F6303F5003303F5807398451FD003F151
:104790006E4303F5302303F586739845E0D107F1A6
:1047A0001401384602F074F8DAE707F114013846CC
:1047B00002F06EF8D4E707F11401384602F068F809
:1047C000CEE707F11401384602F062F8C8E707F1B6
:1047D0001401384602F05CF8C2E707F114013846CC
:1047E00002F056F8BCE700BF7666730064626700AB
:1047F00061636F6E2DE9F04104468CB00D46FFF702
:1048000079FC637F022B1ED0237F628B0133DBB2E6
:104810002377AAB9022B13D8206803F0C7F8A8B1F0
:1048200025B9206803F0A0F900280FDD2046FFF726
:104830007DFE0028F5D1206803F0F0F902F029F898
:10484000237F013B23770CB0BDE8F08102F01DF817
:104850000546206803F0AAF8677F012F064624D199
:1048600020B965612046FFF727FDE9E7E3684FF2CD
:104870001862EB1A9342F5D84AF6C872934203D8ED
:104880002369EB1A9342DBD9636941F27072EB1A28
:104890009342D5D90023CDE9013300931A4606216E
:1048A000204600F04FF86561CAE7002FC8D1636960
:1048B000EB1A40B141F270729342C1D9206803F003
:1048C000ADF96777BCE741F288329342B8D92068E6
:1048D00003F0A4F9D4F800C0DCF834E0BCF8388068
:1048E000BEF1000F1BD0334642467146604602F0CF
:1048F000DFFF0128D7D1636805930125184625837A
:1049000004F08EFA0022CDE90122059B00902A4690
:104910001D21204600F016F82369636190E7084BDB
:1049200006930CF120070FCF07AE0FC63B6833701C
:104930004246734606A9604603F09AF8D9E700BFDD
:10494000D4A00B002DE9F04F83B000AF04460068FF
:104950003D6B884616469946EB4603F027F800283B
:104960007FD0B8F11D0F04D84C4B23FA08F3DB07B6
:1049700002D4637F012B74D146B9668B36B9238B81
:1049800001339BB2002B71D02383268BA8F10C033B
:10499000082B16D8D4E90323934238BF134603F1FA
:1049A000420A01F072FFAAEB0000002860DB002140
:1049B0002046FFF71FFF01F068FFAAEB0000002868
:1049C000F5DAB9F1000F5AD06B1D7A6B002ABA6B79
:1049D00008BF002203EB020A0AF1070323F00703D2
:1049E000ADEB030DBB6BC7F804D0EA18C2F3072385
:1049F00076BA43EA02238DF80080ADF80160ADF885
:104A00000330B9F1000F3CD0002D3AD02A46494678
:104A10000DF1050004F0B6F9681D7B6B3BB1BB6B73
:104A20002BB11A467B68796B184404F0ABF900256A
:104A300055452AD2AAEB05027B682068B2F5806F43
:104A400028BF4FF48062591902F063FE0646002029
:104A500001F019FFBEB9206803F0E0F8667701F0B5
:104A600018FF0C37DD46BD46BDE8F08F01238BE70C
:104A7000217F0029A5D12046FFF7BCFEA1E7052331
:104A8000A3E70520C9E73544D2E703D02046FFF766
:104A900013FCE6E701F0F9FE2061E2E745000020A3
:104AA00000B595B004AB002201934F23009302920E
:104AB000034B1121FFF746FF15B05DF804FB00BF63
:104AC000DB900B00F0B5ADF2244D08AB0024054699
:104AD0000F46059305A84FF480630E491646CDE9AD
:104AE0000643FFF72CFB394605A8FFF745FB314687
:104AF00005A8FFF741FB069B013B0093CDE901446C
:104B0000059B224614212846FFF71CFF0DF2244D79
:104B1000F0BD00BF7D900B002DE9F04F2DED028B15
:104B20000FF2C439D9E90089EBA7D7E9006785B04E
:104B30004FF0000B022003F0F1FA8246002800F04B
:104B40008680E9A7D7E90067022003F0E7FA012889
:104B5000054640F0D380132003F0F3FA4FF6FF73BD
:104B600000930023194640F6FF7202F011FA1FFA73
:104B700080FBDF48DF4C01F066FD8146204601F0F6
:104B8000C7F94FF0000A2046022101F008F80A2276
:104B90005946C4F810A0204602F06BFC204602F0F3
:104BA00052FC2946204600F0FAFFD349204602F085
:104BB00043FC0A224946204602F05BFC204602F0F4
:104BC00042FC204601F012FC122003F0BAFA80B237
:104BD00003F026FE32463B4603F08CFEBEA3D3E92B
:104BE000002303F0B1FFC54B002203F0CBFCC44B04
:104BF000002203F07FFE02460B4643EC182BB8A3BD
:104C0000D3E9002303F076FEBE4B002203F0BCFC88
:104C100041EC100B03F062FC59EC108BB0EE480A2B
:104C2000F0EE680A03F05AFC51EC100B04F074F833
:104C300051460246B448FFF745FF4946404604F056
:104C40006BF829460246B048FFF73CFF7CE7A94CC9
:104C5000204601F05DF92046022100F0A0FFC4F8D3
:104C600010A0AA49204602F0FAFBA949204602F00A
:104C7000F6FB204601F0BAFB122003F062FA80B284
:104C800003F0CEFD42464B4603F034FE32463B462F
:104C900003F05AFF994B002203F074FC984B00225A
:104CA00003F028FE02460B4643EC182B8CA3D3E9F5
:104CB000002303F01FFE934B002203F065FC41EC40
:104CC000100B03F00BFC55EC104BB0EE480AF0EE65
:104CD000680A03F003FC51EC100B04F01DF8514678
:104CE00002468948FFF7EEFE2946204604F014F8F4
:104CF000012102468448FFF7E5FE1BE7854D7AA7B0
:104D0000D7E90067A5F800B0022003F007FA0446CF
:104D1000002800F0888074A7D7E90067022003F01C
:104D2000FDF90128044640F0F780132003F009FA4A
:104D30004FF6FF7300930023194640F6FF7202F00E
:104D400027F91FFA80FB6A48DFF8A88101F07BFC95
:104D50000390404601F0DCF84FF0000A4046022183
:104D600000F01DFF0A225946C8F810A0404602F084
:104D700080FB404602F067FB2146404600F00FFFF3
:104D80005D49404602F058FB039B0A221946404603
:104D900002F06FFB404602F056FB404601F026FB56
:104DA000122003F0CEF980B203F03AFD32463B46C2
:104DB00003F0A0FD48A3D3E9002303F0C5FE4F4B49
:104DC000002203F0DFFB4E4B002203F093FD02466E
:104DD0000B4643EC182B42A3D3E9002303F08AFDD2
:104DE000484B002203F0D0FB41EC100B03F076FBA4
:104DF00059EC108BB0EE480AF0EE680A03F06EFB37
:104E000051EC100B03F088FF514602463E48FFF775
:104E100059FE4946404603F07FFF214602463A4884
:104E2000FFF750FE7AE7DFF8CC80404601F070F8DB
:104E30004046022100F0B3FEC8F810403349404616
:104E400002F00DFB3249404602F009FB404601F0FA
:104E5000CDFA122003F075F980B203F0E1FC32467E
:104E60003B4603F047FD1CA3D3E9002303F06CFE8F
:104E7000224B002203F086FB214B002203F03AFD77
:104E800002460B4643EC182B15A3D3E9002303F08D
:104E900031FD1C4B002203F077FB41EC100B03F0BB
:104EA0001DFB59EC108BB0EE480AF0EE680A03F0D7
:104EB00015FB51EC100B03F02FFF21460246124860
:104EC000FFF700FE4946404603F026FF0121024657
:104ED0000D48FFF7F7FD17E70000000000FEAF40A8
:104EE000CDCCCCCCCCCCFC3F6666666666660A4010
:104EF000B4E6032040E6032090900B000000E03F62
:104F00000000594000004040E4E5032080900B0081
:104F100088900B00B0E603202A88094B09485A45BF
:104F200032BFA3F800B01A80A5F800B000F0F0FF7F
:104F3000044805B0BDEC028BBDE8F04F01F056BA55
:104F4000B2E6032040E603202DE9F0432DED028B6D
:104F500095B002F07BFF4FF4165102F06BFF002179
:104F6000022003F0B1F80121082003F0ADF801217F
:104F7000072003F0A9F80121062003F0A5F803F0AB
:104F800035F902F09DF803F031F901466848694DA2
:104F900001F04EFC684801F0D9FC654801F0FFFBC8
:104FA000634801F0CEFBA223AC22A721009302A804
:104FB000EA2302F043F903AC40F6B83001F063FC99
:104FC0000FCC09AF0FC723683B705C4B6B6001F0DF
:104FD0005CFCA0F59C5008380DF1240CC5E90300D9
:104FE0006861BCE80F000FAE0FC62C683B683370D9
:104FF0000FAF41F6907323870FCF4FF00008C4F82E
:10500000348020340FC43368237044F24F6628681C
:1050100002F004FE85F81D8001F037FC04466B7F2A
:10502000012B0CD001F031FC001BB04204D8002150
:105030002846FFF7DFFBF2E76B7F012BE7D13E4C01
:10504000204600F065FF4FF001136361204601F038
:10505000CDF9FFF761FD122003F073F880B203F081
:10506000DFFB2DA3D3E9002303F044FC2CA3D3E9F9
:10507000002303F069FD324B002203F083FA314B29
:10508000002203F037FC02460B4643EC182B26A304
:10509000D3E9002303F02EFC00222B4B03F074FA1B
:1050A00041EC100B03F01AFA59EC108BB0EE480AE1
:1050B000F0EE680A03F012FA204657EC106B00F08D
:1050C00027FF2046022100F06AFD002323614946A4
:1050D000404603F021FE0A2201462046FEF7F6FF75
:1050E0001A49204602F0BBF93946304603F014FE57
:1050F0000A2201462046FEF7E9FF1549204602F044
:10510000AEF9204615B0BDEC028BBDE8F04301F0CE
:105110006DB900BFAFF300806666666666660A40DA
:105120000000000000FEAF40CDCCCCCCCCCCFC3F8E
:10513000B4E60320E4E5032040E6032098900B004A
:105140000000E03F0000594000004040B9900B00D3
:10515000BC900B0030B5ADF2244D08AB00240546E1
:10516000059305A84FF48063CDE90643FEF7E7FFFA
:10517000069B013B0093CDE90144059B22460E218D
:105180002846FFF7DFFB0DF2244D30BD0000000084
:10519000F8B573482DED028B01F001FC082002F0F8
:1051A000BDFF012800F0A680072002F0B7FF01280C
:1051B00000F0A280062002F0B1FF01280CBF62249B
:1051C0006E24684801F03FFA674B1B88834240F227
:1051D00095800121062002F088FF0021082002F0BE
:1051E00084FF0021072002F080FF622C05D06E2C86
:1051F00003D05E495E48FFF7ADFF122002F0A1FF29
:1052000080B203F00DFB50A3D3E9002303F072FB3F
:105210004FA3D3E9002303F097FC564B564D0022D1
:1052200003F0B0F9554B002203F064FB02460B4635
:1052300043EC182B48A3D3E9002303F05BFB504B4E
:10524000002203F0A1F941EC100B03F047F951ECF7
:10525000100B03F061FDB0EE480AF0EE680A074655
:1052600003F03CF951EC100B03F056FD002102460F
:1052700006463F48FFF726FC3D483A460121FFF726
:1052800021FC2B78742B59D1354C204600F040FE80
:105290000221204600F083FC002323610A223946C4
:1052A0002046FEF713FF3749204602F0D8F80A22BD
:1052B00031462046FEF70AFF3349204602F0CFF878
:1052C000204601F093F8264801F082FB08B17423D0
:1052D0002B70234801F086FB08B16C232B70244807
:1052E0000021FFF787FABDEC028B6420BDE8F8408F
:1052F00001F05ABE722464E7672462E7234B1B88DF
:1053000083424FF000014FF006000BD302F0EDFE98
:105310000021082002F0E9FE0121072002F0E5FE4D
:10532000672C63E702F0E1FE0121082002F0DDFEB8
:105330000021072002F0D9FE722C57E7FFF7ECFBA3
:1053400074232B70BFE700BF6666666666660A4018
:105350000000000000FEAF40CDCCCCCCCCCCFC3F5C
:1053600040E60320B4E60320B0E60320BF900B0024
:10537000E4E503200000E03F74E50320000059400D
:1053800000004040B9900B00BC900B00B2E6032037
:1053900010B5104C0021012001F036FD204602F02E
:1053A00087FC04F11C0001F005FF0B4A0B480023A9
:1053B000C2E90043C2E90233C2E904339361938333
:1053C00007216363238701F093FABDE81040044886
:1053D00001F0FFB804E60320E4E5032040E60320E3
:1053E000B4E603202DE9F04F85B01F46BDF93880A3
:1053F000BDF83C30A8EB0209A7EB010AB9F1000F98
:10540000B8BFC9F10009BAF1000FB8BFCAF1000A6C
:10541000D14583460C46154604DD3A462C464746A0
:105420000D469046BC4205DD2A464546904622463A
:105430003C4617463E1BB2B20092A8EB050282EA38
:10544000E271A1EBE271C6F3C03202FA86F645457D
:10545000B4BF01224FF0FF32019176100292BC429C
:105460001CDCDBF800200393D145D2F81880C7BFBD
:10547000294622462A4621465846C047019A039BA0
:10548000B61AB1B236B2002E05DA029A1544009A65
:1054900056182DB236B2013424B2E0E705B0BDE8AB
:1054A000F08F704710B404682469A4465DF8044B7B
:1054B000604730B40468BDF808500295A46BA44658
:1054C00030BC604730B40468BDF808500295E46B06
:1054D000A44630BC604770B4BDF90C50BDF81060F4
:1054E0000468CDE90356246CA44670BC60472DE9DE
:1054F000F3411C460368BDF820805B6905461646EB
:10550000013C34440F4624B298472B68CDF8048000
:1055100000949C6A28463B4632463946A0472B6891
:10552000DB6A284602B0BDE8F04118472DE9F34197
:105530001D460368BDF820805B69044617460E4689
:105540009847CDE9007822686B1E3344956A20465F
:105550001BB23A463146A8472368DB6A204602B0B0
:10556000BDE8F04118472DE9F3471E460368BDF931
:1055700028905B69BDF82C800C4605461746984775
:105580002644B4422B680BDACDF80080D3F820A073
:1055900021464B463A4628460134D04724B2F0E72C
:1055A000DB6A284602B0BDE8F047184713B5026829
:1055B0000191B0F90E100091146CB0F90C3000227A
:1055C0001146A04702B010BD2DE9F7439942164697
:1055D000BDF92870BDF82C90026880460D461C4627
:1055E00013D1BE42C8BF3346CDF82890C4BF3E4653
:1055F0001F467B1C946B9B1B1BB2324629464046C0
:10560000A44603B0BDE8F0436047BE420AD19942C8
:10561000C2BF0B4625461C46631CCDF82890D46BB0
:105620005B1BE9E753699847CDE90079D8F800306A
:1056300040469F6A324623462946B847D8F800308C
:10564000DB6A404603B0BDE8F04318472DE9F34755
:105650001D460368BDF82C805B69BDF9289004469F
:105660000F46164698472368CDF80080D3F824A04B
:1056700032462B4639462046D0472368CDF8008075
:1056800009F1FF323244D3F824A039462B46204694
:1056900012B2D0472368CDF80080D3F820A032465C
:1056A0004B4639462046D0476B1ED9192368CDF8A2
:1056B00000801D6A20464B46324609B2A84723683F
:1056C000DB6A204602B0BDE8F0471847704701F09A
:1056D0000303B0F90A208376C907B0F9083059BF2F
:1056E0008381C2818281C3817047000030B54281CD
:1056F000C281074A074D0181002481814FF0FF31AB
:10570000C0E905124460056004610477046230BD9D
:105710000101000134960B002DE9F04F89B0CDE96D
:1057200002120268BDF948800493BDF94C305269F9
:105730000593BDF850A00446904718F107024FF0BA
:10574000000648BF08F10E024FEAE20B019635460B
:10575000039B019ABDF904109A18059B8B4212B263
:1057600027DD049B33444FF0000906930FFA89F0BC
:1057700080451FFA89F117DD4F0705BF069BC01052
:105780006D001D5C18BFEDB22B060AD5029B206888
:1057900007921944836909B21F4620465346B84709
:1057A000079A09F10109E1E7019B013301935E4486
:1057B000CEE72368DB6A204609B0BDE8F04F184702
:1057C0002DE9F04F2DED028B91B01646026ABDF81F
:1057D00074809DF878509DF87C4003911F46BDF879
:1057E000703004938346002A40F0C580B0F90C3035
:1057F0008B4240F34C81B0F90E30B34240F3478105
:10580000062313FB0513002B40F3418106EBC40371
:10581000002B40F33C81037F1BB9AF2F84BF0137BE
:10582000FFB2DBF8003058465B69984705220992C1
:1058300000220592984A07EB8703D3180C93B3B262
:105840000693059A0C9B9B5C0793ABB20B93BDF838
:105850000C300893039B02FB05F919FA83F90FFA40
:1058600089F308EE103A08230A93039B02EB030A1C
:105870004FF000090FFA8AFA079ADBF80030D207D6
:1058800052D5012D1FFA89F23ED1012C3CD19B69E2
:1058900006991F46049B0A4412B251465846B8471F
:1058A00009F101034FFA83F9079B5B0807930A9BF1
:1058B000013B13F0FF030A93DED1059F01377BB252
:1058C0000593099B013B13F0FF030993B9D1049B96
:1058D00043450FD0012DDBF800303BD1012C39D1ED
:1058E0000899CDF8008005311C6A3246082309B2B8
:1058F0005846A047DBF80030DB6A584611B0BDECD3
:10590000028BBDE8F04F1847069914FB02F20A44D7
:10591000049901910094DB6918EE101A1F4612B227
:105920002B465846B847BBE7049A4245B8D0012DEC
:105930001FFA89F207D1012C05D19B6906991F46F0
:105940000A444346A8E70699CDF8048014FB02F206
:105950000A44DFE70B9ACDF8048002EB8201089A33
:10596000E4000A4411460094DC6932462B4609B231
:105970005846A047BEE7137A516812680B92FF1A87
:10598000FFB201EBC70331F8372006929A780992EB
:10599000DA780C92012D93F9052093F906A00A926A
:1059A00001D8012C57D9BDF9283008930FFA8AF392
:1059B0000793DBF8003058465B699847B3B24FF065
:1059C00000080E931AFA86F3C14647460F930C9BC4
:1059D0009F428FD2079B0E9A3B4403FB0423002275
:1059E00005920F9A1BB202EB070A08EE103A0FFA63
:1059F0008AFA4346099A0599914241D25A1CD2B279
:105A00005B070D9207D1069B06990B9A01339BB257
:105A100012F80190069319F0800F12D0012DDBF8D7
:105A20000030BDF80C101AD1012C18D10A9A9B69CC
:105A30001144059A11441E465246049B09B2584629
:105A4000B047059E0136F3B24FEA490905935FFA64
:105A500089F90D9BCEE70023CDE90733A9E7059827
:105A6000089A024402FB0511049ACDE90042DB6961
:105A700018EE102A1E4609B22B465846B047E0E7FA
:105A8000099B013798445FFA88F8FFB29FE711B08D
:105A9000BDEC028BBDE8F08F2C910B00F0B5026AD3
:105AA00085B004460B46002A34D10A2908D1438A1E
:105AB0000282427E03EBC2036382012005B0F0BD87
:105AC0000D29FAD0E17E007E657E71B1B4F91060D7
:105AD000062111FB0061B4F90C60B142C1BFB4F9F9
:105AE0001210228201EBC5026282E28A0192A28A2E
:105AF0000092CDE90205B4F91220B4F91010204645
:105B0000FFF75EFE237E228A03EB430302EB43038F
:105B10002382D2E70A2907D100230382417E927AA9
:105B2000438A01FB0233C7E70D29C6D0157AA94283
:105B3000C3D3517A9942C0D351685D1BEDB201EBDA
:105B4000C505A87828B3E97819B3E17E267E677E7B
:105B500091B195F905100844B4F9101006FB001135
:105B6000B4F90C00814207DD00202082B4F9121044
:105B7000927A02FB07126282E28A0192A28A009262
:105B8000CDE90267B4F91220B4F910102046FFF7EE
:105B900017FE2979227E238A01FB0233B8E7012907
:105BA00038BF0121017641767047704710B510214A
:105BB0000446FEF774FA204610BD0EB403B503ABDD
:105BC000002153F8042B019301F071FC02B05DF841
:105BD00004EB03B07047000073B504460846227911
:105BE000A36832B1A3B90B4902B0BDE8704001F01F
:105BF00023BC094A267B094D0949647B012E18BF45
:105C00002946CDE900140749FFF7D7FF02B070BD60
:105C1000054AEFE795960B0097900B0091960B00C5
:105C20008D960B00AB960B0084960B0010B5044BC1
:105C300003600446C06A08B101F07AF9204610BD3D
:105C4000849B0B0010B50446FFF7F0FF204650215F
:105C5000FEF725FA204610BD002910B54BDBB0F940
:105C60000C408C4247DD002A45DBB0F90E409442DF
:105C700041DD847E022C1FD0032C26D0012C04D1C0
:105C80000489D24314440A4621B2012B23D0022BAB
:105C900032D083BB002A13460489C06AB8BFD31D23
:105CA000DB1013FB041102F0070201239340425C56
:105CB00022EA030242541EE00489013C611A44892D
:105CC000D243224409B212B2DFE74489013C641A8C
:105CD000114622B2D9E7002A04891346B8BFD31D62
:105CE000DB1013FB0411C36A02F00700012282409B
:105CF000585C02435A5410BD002A13460489C06AF6
:105D0000B8BFD31DDB1013FB041102F007020123FF
:105D100003FA02F2435C5A40CCE7000070B5044637
:105D20001D460026FFF7E2FC114B2360666215B9A1
:105D300002F05CFA0546FF2384F8333084F83630ED
:105D40009DF9103084F837300A4BA363012384F89F
:105D50003C30059BA3644FF6FF72069BA286C4E904
:105D60000A562664A4F84460E364204670BD00BF70
:105D7000849B0B00D0960B00F8B50446806A0D4654
:105D800090B194F9301001F0D1F9A06A03680021B4
:105D90009B689847A06A036829469B689847A06A51
:105DA000BDE8F84001F0C9B994F93530014698B220
:105DB00002F09BF9606A20B12946BDE8F84001F085
:105DC00059BC0826802794F9330005EA070180B200
:105DD00002F08BF994F93400012180B202F085F9C8
:105DE00094F93400002180B202F07FF9013E4FEABD
:105DF0005707E8D1F8BD38B50446806A0D4680B132
:105E0000A16C01F059F9002D204614BFA721A6214D
:105E1000FFF7B2FFA06A88B1E16CBDE8384001F03D
:105E20004BB9606A18B104F1380101F0B5FB94F97F
:105E30003600002180B202F058F9E4E794F9360008
:105E4000012180B202F051F9606A18B1BDE8384012
:105E500001F088BB38BD2DE9F8430446806A0D4641
:105E60008F1840B394F9301001F060F9A06A03680C
:105E700000219B6898470126AF42A06A17D01F2EC9
:105E80000CD901F05AF994F93010A06A01F04EF9DA
:105E9000A06A036800219B6898470126A06A15F84C
:105EA000011B036801369B689847F6B2E4E7BDE83A
:105EB000F84301F042B994F93530014698B202F046
:105EC00014F9BD4222D0606A15F8019B18B1494609
:105ED00001F0D0FBF5E708264FF0800894F9330075
:105EE00009EA080180B202F000F994F934000121B6
:105EF00080B202F0FAF894F93400002180B202F086
:105F0000F4F8013E4FEA5808E8D1DAE7BDE8F88333
:105F1000B0F90A30DA1D48BF03F10E02B0F90830BB
:105F2000C06AD2105A43002102F03ABF2DE9FF4166
:105F30001E46C36A9DF8288004460F461546C3B125
:105F40002046FFF7E5FFB4F90A00B4F9081020284D
:105F500021DC202301222038CDE9013200EBD07072
:105F600073237339009301EBD171894B40F34F02D6
:105F700021E0B0F90A30D81D48BF03F10E00B4F992
:105F80000830C010584300F0CBFFE0620028D7D1A2
:105F900004B0BDE8F0814038C0F3C03202FA80F2AC
:105FA00040230120CDE90130522352390093794B2F
:105FB00001EBD1715210204641F34F01FFF7ACFBCA
:105FC000A06A84F83170002878D0002D74D1B4F91B
:105FD0000A30202B0CBF3C253D2584F83050B8F109
:105FE000000F01D001F06CF8FEB194F937000028E1
:105FF0001BDB012180B202F067F894F93700012120
:1060000080B202F072F8012000F0CEFF94F9370060
:10601000002180B202F069F80A2000F0C5FF94F96F
:106020003700012180B202F060F8A06A002874D025
:10603000A16C01F041F8042257492046FFF70BFFFD
:1060400061890139C9B22046FFF796FE53490422FF
:106050002046FFF700FF94F93130012B0CBF1021CF
:1060600014212046FFF788FE04224D492046FFF701
:10607000F2FEA3684B4A93425CD14B49042220466E
:10608000FFF7E9FED9212046FFF776FE94F931307B
:10609000012B0CBF2221F1212046FFF76DFE204687
:1060A00042490622FFF7D7FEA06A002863D0E16CC0
:1060B00001F002F801206BE76DB28EE794F935002C
:1060C000012180B202F000F894F93600012180B27B
:1060D00001F0FAFF94F93600012180B202F005F8D0
:1060E000656A3DB1B8F1000F3FF47EAF284601F07C
:1060F00025FA79E794F93300012180B201F0E4FF39
:1061000094F93400012180B201F0DEFF94F93400EB
:10611000294680B201F0E9FF66E7606A18B104F130
:10612000380101F039FA94F93600002180B201F00B
:10613000DCFF80E71E4A93420ED11E49032220460F
:10614000FFF789FE94F93130012B0CBF9F21CF213D
:106150002046FFF711FE95E7174A934292D117495F
:1061600003222046FFF777FE94F93130012B0CBF54
:106170001021AF21ECE794F93600012180B201F043
:10618000B4FF606A002895D001F0ECF992E700BFF7
:106190009C990B00DC960B00E49B0B00E89B0B002A
:1061A000EC9B0B0080002000F69B0B00F09B0B008B
:1061B00080004000FA9B0B0060001000FD9B0B006C
:1061C00070B5002ABDF810503DDBB0F90A4094428A
:1061D00039DD0029BEBF5B181BB20021B0F90840B1
:1061E000CE18A642C4BF631A1BB2002B2BDDC06AB7
:1061F000D61014FB0611014402F007000122824070
:10620000012DD2B216D0022D0BD0E5B9D243D2B2B5
:106210000B44994217D011F8010B104001F8010C02
:10622000F7E70B4499420ED011F8010B504001F8EA
:10623000010CF7E70B44994205D011F8010B10430C
:1062400001F8010CF7E770BDF0B50029BDF8145056
:1062500076DBB0F90860B14272DA002ABEBF9B1843
:106260001BB20022B0F90A40D718A742C4BFA31A34
:106270001BB2002B64DDC2F3C404C76A16FB04160C
:1062800012F00702DBB207EB060423D0C2F10802CA
:10629000D2B22D4993423CBF4FF0FF0CA2EB030E4C
:1062A000895C3CBF4CFA0EFC0CEA0101012D07D0C1
:1062B000022D2ED04DB917F806C02CEA010103E0DB
:1062C00017F806C041EA0C01B955934238D3B0F92A
:1062D00008100C449A1AD2B2072A0ED9022D1DD1E9
:1062E00013462178C9432170083BB0F90810DBB28E
:1062F000072B0C44F5D802F007020AB3134B012D0B
:106300009B5C1AD0022D1CD0D5B9227822EA030357
:1063100015E017F806C081EA0C01D5E7291E18BF61
:1063200001214942C9B213462170083BB0F9086007
:10633000DBB2072B3444F7D8DDE722781343237010
:10634000F0BD22785340FAE7D49B0B00DC9B0B0096
:1063500070B41446827EBDF80C60022A0DD0032A68
:1063600018D0012A11D10289E443144424B20396BF
:106370000A46214670BCFFF767BF42890589E4439E
:1063800019441444691A24B209B20396224670BC17
:10639000FFF716BF45891944691A09B2E7E730B417
:1063A0001446827EBDF80850022A0DD0032A18D068
:1063B000012A11D1E2180489A41A24B202950A46CE
:1063C000214630BCFFF7FCBE0289C9431144E218E4
:1063D0004489A41A09B224B20295224630BCFFF7C0
:1063E00033BF4289C943114409B2E7E72DE9F843B5
:1063F0000446806A002842D0A16C00F05DFE474947
:1064000005222046FFF727FD218901392046C9B220
:10641000FFF7B2FCB4F90A30DE1D48BF03F10E06E7
:10642000D4E90A052389F61013FB06F615FA86F659
:1064300000283AD094F9301000F078FEA06A036882
:1064400040219B6898470127B542A06A24D01F2F9E
:106450000CD900F072FE94F93010A06A00F066FECC
:10646000A06A036840219B6898470127A06A15F835
:10647000011B036801379B689847FFB2E4E7606A35
:1064800018B104F1380101F087F894F936000021C1
:1064900080B201F02AFEB2E700F04FFEA06A78B3A6
:1064A000E16CBDE8F84300F007BE94F93500012126
:1064B00080B201F01AFEAE42F0D0606A15F8019B7E
:1064C00018B1494601F0D6F8F5E708274FF08008E3
:1064D00094F9330009EA080180B201F006FE94F94C
:1064E0003400012180B201F000FE94F93400002153
:1064F00080B201F0FAFD013F4FEA5808E8D1DAE72F
:1065000094F93600012180B201F0EFFD606A18B104
:10651000BDE8F84301F026B8BDE8F883009C0B0005
:1065200000210A22C0E900127047002310B504467A
:10653000C171837188B201F0F1FD08B10323A37129
:1065400000F082FA206010BD38B50C4605461146B1
:10655000A0B201F0B9FD21462846BDE83840FFF75A
:10656000E4BF38B50446C07901F0D8FDA5790038FC
:1065700025F0080318BF0120C5F340058542A3712B
:106580000AD000F061FAA379206083F00203A371BE
:10659000A079C0F3C00038BD00F056FA2368C01AD5
:1065A000A3889842F4D3A37903F00103AB42EFD060
:1065B00000F04AFAA379206083F0010343F0080356
:1065C000E5E7807900F00900A0F10803584258413E
:1065D0007047704710B504466021006800F0A2FDC6
:1065E000206800F0AAFDB0FA80F0400910BD38B56F
:1065F00005460C460068602100F094FD2868036899
:1066000021469B6898472868002100F092FD08B158
:10661000002038BD28680222602100F080FD286833
:1066200003681B6998470028F2D0286803685B69F3
:1066300098470446286803685B699847E4B244EACF
:10664000002080B2E5E70921FFF7D1BF0C21FFF759
:10665000CEBF70B504460E4600686021154600F0B6
:1066600061FD2068036831469B689847206803688D
:10667000E9B29B68984720680368290A9B68984795
:10668000206800F05AFDB0FA80F0400970BD70B586
:1066900004460D461646FFF7AAFF00F47F4040EA85
:1066A000060229462046BDE87040FFF7D2BF70B50C
:1066B00004460D461646FFF79AFFC0B240EA06228E
:1066C00029462046BDE87040FFF7C3BF08B5FFF775
:1066D0008EFFC0F3072008BD2DE9F04104469DF868
:1066E00018700D46984616466AB1FFF780FFC0B293
:1066F00000EA080343EA07022946204636B1BDE80E
:10670000F041FFF7C4BFFFF7E1FFF1E7BDE8F0415B
:10671000FFF7CDBFB1F5A07F07B50ED29F290ED8E8
:106720004F298CBF40230023009301223F230321E4
:10673000FFF7D2FF03B05DF804FBC023F4E780232A
:10674000F2E707B500210091FE230122FFF7C4FF05
:1067500003B05DF804FB072907B50FD803290FD84C
:1067600010D002290CBF0423002300930122F1233F
:106770000321FFF7B1FF03B05DF804FB0E23F4E73C
:106780000C23F2E70823F0E707B50023009301226A
:10679000FE230321FFF7A0FF03B05DF804FB07B55C
:1067A00001220092FE230321FFF796FF03B05DF85C
:1067B00004FB07B50F298CBF082300230093002298
:1067C000F7230321FFF788FF03B05DF804FB07B54B
:1067D000022300930122EF230421FFF77DFF03B082
:1067E0005DF804FBC72907B516D8B32916D89F2929
:1067F00016D88B2916D8772916D8632916D84A298E
:1068000094BF002101210091F82300220421FFF709
:1068100063FF03B05DF804FB0721F4E70621F2E70C
:106820000521F0E70421EEE70321ECE70221EAE786
:1068300038B504460846216000F042FC2046FFF7C8
:10684000C9FE054610B90025284638BD2046FFF789
:10685000FDFEB0F5C37FF6D12046C821FFF7C2FF89
:1068600020462821FFF756FF20460821FFF773FF37
:1068700010212046FFF79DFF2046FFF7A8FF204686
:10688000FFF782FFE0E700F08FBB00F0DDB8704754
:106890007047704703065ABF024B53F82000002090
:1068A000704700BF089C0B0003065ABF024B53F809
:1068B00020000020704700BF089E0B0010B5064B5B
:1068C00003600446006D08B100F09EF82046FFF713
:1068D000ADF9204610BD00BF10A00B0010B5044656
:1068E000FFF7ECFF20467021FDF7D9FB204610BDD5
:1068F00030B585B004460D4601F078FC104A1149C8
:10690000CDE901214FF0FF3280210346009220465D
:106910002022FFF703FA0C4B23600023C4E914354F
:1069200004F15800FFF7FCFD04F16000FFF7F8FDEB
:1069300004F16800FFF7F4FD204605B030BD00BF4C
:10694000801A0600A086010010A00B0013B50446B3
:10695000503000F051F8636DD90705D502220421AB
:1069600004F15800FFF7F0FD636D9A0705D500228A
:10697000032104F16000FFF7E7FD636D5B0705D5B8
:106980000222114604F16800FFF7DEFD01230093A7
:106990003C2202212046FFF7C9FA02B010BD10B513
:1069A000436DD907044602D55830FFF7DAFD636D11
:1069B0009A0703D504F16000FFF7D3FD636D5B0711
:1069C00005D504F16800BDE81040FFF7CABD10BD51
:1069D000436D024613F0010003D002F15800FFF7A7
:1069E000F0BD7047436D024613F0020003D002F180
:1069F0006000FFF7E6BD704708B5024B1B681B6BD4
:106A0000019308BD4802030008B5024B1B685B6B8D
:106A1000019308BD4802030008B5024B1B685B6C7C
:106A2000019308BD4802030008B5024B1B685B6870
:106A3000019308BD1802030008B5024B1B68DB6810
:106A4000019308BD1802030008B5024B1B685B697F
:106A5000019308BD1802030008B5024B1B685B6870
:106A6000019308BD2C02030008B5024B1B689B680C
:106A7000019308BD2C02030008B5024B1B68DB68BC
:106A8000019308BD2C02030008B5024B1B681B696B
:106A9000019308BD2C02030008B5024B1B685B691B
:106AA000019308BD2C02030008B5024B1B689B6ACA
:106AB000019308BD2C02030008B5024B1B681B6B39
:106AC000019308BD2C02030008B5024B1B689B6FA5
:106AD000019308BD2C02030008B5024B1B681B681C
:106AE000019308BD2802030008B5024B1B68DB6850
:106AF000019308BD2802030008B5024B1B689B697F
:106B0000019308BD2802030008B5024B1B68DB692E
:106B1000019308BD2802030008B5024B1B681B6ADD
:106B2000019308BD2802030008B5024B1B685B6A8D
:106B3000019308BD2802030008B5024B1B689B6A3D
:106B4000019308BD2802030008B5024B1B68DB6AED
:106B5000019308BD2802030008B5024B1B681B6B9C
:106B6000019308BD2802030008B5024B1B685B6B4C
:106B7000019308BD2802030008B5024B1B681B6C7B
:106B8000019308BD2802030008B5024B1B681B6D6A
:106B9000019308BD2802030008B5024B1B685B691E
:106BA000019308BD6C02030008B5024B1B685B69CA
:106BB000019308BD6402030008B5024B1B681B6A01
:106BC000019308BD6402030008B5024B1B689B6A71
:106BD000019308BD6402030008B5024B1B689B6863
:106BE000019308BD6802030008B5024B1B68DB680F
:106BF000019308BD6802030008B5024B1B689B693E
:106C0000019308BD3802030008B5024B1B68DB691D
:106C1000019308BD3802030008B5024B1B681B6ACC
:106C2000019308BD3802030008B5024B1B689B6A3C
:106C3000019308BD3802030008B5024B1B681B6BAB
:106C4000019308BD3802030008B5024B1B689B6B1B
:106C5000019308BD3802030008B5024B1B681B688E
:106C6000019308BD3002030008B5024B1B685B6945
:106C7000019308BD3002030008B5024B1B68DB69B5
:106C8000019308BD3002030008B5024B1B681B6A64
:106C9000019308BD3002030008B5024B1B685B6A14
:106CA000019308BD3002030008B5024B1B68DB6B83
:106CB000019308BD3002030008B5024B1B681B6C32
:106CC000019308BD3002030008B5024B1B685B6CE2
:106CD000019308BD3002030008B5024B1B68DB6856
:106CE000019308BD3C02030008B5024B1B681B69F9
:106CF000019308BD3C02030008B5024B1B685B69A9
:106D0000019308BD3C02030008B5024B1B689B6958
:106D1000019308BD3C02030008B5024B1B68DB6908
:106D2000019308BD3C02030008B5024B1B681B6AB7
:106D3000019308BD3C02030008B5024B1B689B6A27
:106D4000019308BD3C02030008B5024B1B681B6C95
:106D5000019308BD3C02030008B5024B1B681B6889
:106D6000019308BD4C02030008B5024B1B685B6829
:106D7000019308BD4C02030008B5024B1B681B6958
:106D8000019308BD4C02030008B5024B1B685B6908
:106D9000019308BD4C02030008B5024B1B689B69B8
:106DA000019308BD4C02030008B5024B1B68DB6968
:106DB000019308BD4C02030008B5024B1B681B6A17
:106DC000019308BD4C02030008B5024B1B685B6BC6
:106DD000019308BD6002030008B5024B1B681B6DE0
:106DE000019308BD6002030008B5024B1B685B6895
:106DF000019308BD2002030008B5024B1B685B69C4
:106E0000019308BD2002030008B5024B1B68DB6A32
:106E1000019308BD2002030008B5034B1B68D3F89B
:106E20008830019308BD00002002030008B5034B21
:106E30001B68D3F89430019308BD000020020300C2
:106E400008B5024B1B689B68019308BD4402030010
:106E500008B5024B1B68DB6B019308BD44020300BD
:106E600008B5024B1B685B68019308BD4002030034
:106E700008B5024B1B689B68019308BD40020300E4
:106E800008B5024B1B68DB68019308BD4002030094
:106E900008B5024B1B681B69019308BD4002030043
:106EA00008B5024B1B685B69019308BD40020300F3
:106EB00008B5024B1B689B69019308BD40020300A3
:106EC00008B5024B1B68DB69019308BD4002030053
:106ED00008B5024B1B681B6A019308BD4002030002
:106EE00008B5024B1B681B6B019308BD40020300F1
:106EF00008B5024B1B685B6B019308BD40020300A1
:106F000008B5024B1B681B6C019308BD40020300CF
:106F100008B5024B1B685B6C019308BD400203007F
:106F200008B5024B1B681B68019308BD1C020300D7
:106F300008B5024B1B685B68019308BD1C02030087
:106F400008B5024B1B68DB69019308BD1C020300F6
:106F500008B5024B1B685B6A019308BD1C02030065
:106F600008B5024B1B68DB6B019308BD1C020300D4
:106F700008B5024B1B681B6C019308BD1C02030083
:106F800008B5024B1B685B6C019308BD1C02030033
:106F90008A4210B507D0441A0298C01A4443501AC6
:106FA00094FBF0F0184410BD0021FFF725BF00004E
:106FB000024800230360FFF72FBD00BFC4E6032093
:106FC000002240681146FFF783BF00224068114647
:106FD000FFF78EBF40680022FFF782BF40680022A3
:106FE00081F00101FFF76CBF002340681A46194683
:106FF000FFF75EBF002340681A461946FFF750BFEF
:10700000002240681146FFF743BF00224068114646
:10701000FFF72EBF406800220221FFF731BF002397
:1070200040681A46FFF71CBF024B03225A60024A0F
:107030001A607047C8E6032070A00B007047F8B5CF
:10704000064615460C468F18BC4206D0336814F825
:10705000011B9B6830469847F6E72846F8BD007C40
:107060000022FFF759BD007C0021FFF75DBD007CC9
:107070000021FFF761BD007C0021FFF765BD007CAA
:107080000021FFF769BD10B514210446FDF707F88C
:10709000204610BD10B54FF47A730446084600210F
:1070A000C4E90113034B236020741146FFF764FD0C
:1070B000204610BDACA00B00007C0022FFF70CBDE9
:1070C0000023007C1A461946FFF70EBD7FB500224B
:1070D0001423CDE90122ADF804300B788DF8083087
:1070E0004B680393CB680493007C0B7A059301A94A
:1070F000FFF74AFD07B05DF804FB1FB5003B8DF8B4
:1071000000104FF06401039118BF012369460192FA
:107110008DF80830FFF7DAFF05B05DF804FB0123B6
:10712000FFF7EBBF007C0022FFF7E6BCC9B2FFF718
:10713000F9BF007C0022FFF7E7BC0121FFF7F9BF90
:10714000704710B518210446FCF7A9FF204610BD72
:10715000F0B5037D062B8DB00E4600F104074FF00D
:10716000000412D000F1080515F8011D0A2230466E
:1071700000F07FF9AF42044419D0002CF4D02E2146
:10718000304600F05DF90444EEE72F236A463946A5
:107190000A208DF80040FFF707FD684601F040FE29
:1071A00033680246DB686946304698470446204605
:1071B0000DB0F0BD10B5054B0446112240F8043B5C
:1071C000002101F0EDFD204610BD00BFD4A00B0052
:1071D0000346074A10B543F8042B01F1100251F899
:1071E000044B43F8044B9142F9D10A781A7010BD50
:1071F000D4A00B00037D042B04D14068003818BFD5
:1072000001207047062B07D143683BB983682BB92F
:10721000C3681BB90069F1E700207047012070477F
:1072200010B59DF8084044EA032343EA024242EACB
:10723000016104234160037510BD000013B5044CC7
:1072400004609DF810400094FFF7EAFF02B010BD03
:10725000D4A00B0007B5064B0360CB7800938B7866
:107260004A780978FFF7DCFF03B05DF804FB00BF44
:10727000D4A00B00014B024A1A607047D0E60320ED
:10728000E0A00B00002340681A46FFF7E9BD406804
:1072900000220221FFF7F4BD002240681146FFF7EB
:1072A000E7BD002240681146FFF7F2BD00234068A9
:1072B0001A461946FFF7F4BD002340681A461946DE
:1072C000FFF7F6BD40680021FFF71ABE40680021B5
:1072D000FFF71EBE4068002281F00101FFF7F0BDFC
:1072E00040680022FFF7FCBD002240681146FFF70E
:1072F000FFBD002240681146FFF7EABD2DE9F043CB
:1073000095B014460D460746FFF754FF00211C2296
:107310000DA8009101F044FD40230C9320466B46DC
:107320000CAA0021FFF760FC044600284BD102465E
:1073300001216868FFF7ACFD02218046224668689B
:10734000FFF7A6FD009E81462146002E3BD0002976
:1073500039D17368022B03D00A2B11D0F669F4E7F8
:10736000B8F1000FFAD0716906A8043107ADFFF734
:1073700071FF0FCD3C1D0FC42B6823704146EDE714
:10738000B9F1000FEAD07469102201A801F008FDDC
:1073900006238DF8143001AD04F108031834186881
:1073A00059682A4603C20833A3421546F7D101A9FA
:1073B00006A807ADFFF70CFF0FCD3C1D0FC42B68CF
:1073C00023704946CAE70098FFF706FC384615B017
:1073D000BDE8F083024B034A1A6000225A607047EE
:1073E000D4E60320ECA00B00F8B506460D468F1836
:1073F0000024BD420CD0336815F8011B9B68304651
:107400009847031E01DB1C44F3E7002C08BF1C4611
:107410002046F8BD13B50446084659B1019101F064
:10742000FFFC23680199DB680246204602B0BDE8F4
:107430001040184702B010BD08B5FFF7EBFF08BDBC
:1074400003689B68184738B50D210546FFF7F8FF1C
:107450000A2104462846FFF7F3FF204438BD38B51B
:107460000546FFF7D7FF04462846FFF7ECFF204408
:1074700038BD30B58BB00023012A8DF8243098BF79
:107480000A2209AC0D46B1FBF2F101FB125303F0E5
:10749000FF03092B94BF30333733DBB2AA4204F821
:1074A000013DEFD92146FFF7B5FF0BB030BD2DE907
:1074B000F04186B000AF05460E46381D1421144633
:1074C0003B60FFF745FD13280ED8391D2846FFF70E
:1074D000A1FF04461EB12846FFF7B5FF044420462D
:1074E0001837BD46BDE8F08100F1080323F007031B
:1074F000E846ADEB030D2246411C3B686846FFF7AA
:1075000027FD69462846FFF785FF0446C546E1E7A3
:10751000014B00229A607047DCE603200021FFF750
:10752000D3BB0021FFF7C8BB10B504460846217045
:10753000FFF7A2FB00236360204610BD13B504468D
:107540000078FFF7EEFF58B9207801904FF6FF71F1
:10755000FFF782FB019802B0BDE81040FFF7DEBFE5
:1075600002B010BD0078FFF7D9BF0000400830B569
:107570001860002418688842E5B206D90134082C46
:1075800002D040081860F5E70725024B5B5D1370D9
:1075900030BD00BF20A10B002DE9F04306468FB09F
:1075A00000780C46FFF7BDFF00281BDB357814225E
:1075B000002109A801F0F4FB0B23002209A92846A9
:1075C000ADF82430FFF768FB9DF82D3013B19DF81E
:1075D0002C5055B10027B946B846012523795DB135
:1075E000C3B100200FB0BDE8F083DDF830809DF816
:1075F00034909DF83570F1E7002B35D1A3684345F1
:1076000008D18DF820908DF82170BDF82020A38935
:107610009A42E6D00023A1688DF80F300A9804AB97
:107620000DF10F02FFF7A2FF217985B989B9A3688F
:1076300043450ED38DF820908DF82170BDF82020A1
:10764000A3899A4205D1049B434502D1C9E7002989
:10765000F9D100230193637B00939DF80F20237BD6
:107660003078FFF721FBBCE7CDE900552B462A46D1
:107670000121F5E708B50078FFF7F6FAC0B208BDBA
:1076800010B50446FFF7E0F9E060236820465B6927
:107690009847002808DAFFF7D7F9E368C01AA3680B
:1076A0009842F2D34FF0FF3010BD2DE9F04107466C
:1076B0000C468E180D46B542A5EB040807D0384697
:1076C000FFF7DEFF031E02DB05F8013BF3E7404650
:1076D000BDE8F081054B02221A60054B054A9A600D
:1076E0000020C3E90000FFF77FBB00BFF8E60320DE
:1076F000ECE603200000FFFF13B503688DF80710C8
:10770000DC6B01224FF0FF330DF10701A04702B0FF
:1077100010BD10B40368DC6B4FF0FF33A4465DF876
:10772000044B604713B5134602688DF80710D46BFD
:107730000DF107010122A04702B010BD10B5436949
:10774000B3F88620B3F884309A42044608D06369BF
:10775000B3F88420511CA3F884101344187910BD89
:1077600003681B6998470028F1D14FF0FF30F6E716
:10777000704743691868C043C00F704770470000E6
:10778000064B994210B500F10C0405D0084600F0F4
:1077900093FD002808BF0024204610BD60A00B0008
:1077A00010B5AC210446FCF77AFC204610BDAC2194
:1077B000FCF775BC2DE9F0414FF0000886B01C467F
:1077C000C0F8048005460E4617464146102202A81E
:1077D00001F0E6FA631C09D04FF47A73B4FBF3F2BC
:1077E00003FB1244CDE902285C430494686910232A
:1077F0000093006802AB41F2050240F6FF71FFF70B
:10780000FBF9002807DAFFF7ABFB03686B60002089
:1078100006B0BDE8F0816869002300683A46314649
:10782000FFF70AFA031EEEDB1846F1E738B5846964
:107830000A4B036005467CB16368013B63605BB93A
:10784000236820469B689847A368013BA3601BB947
:1078500023682046DB689847284638BD64A10B00A2
:1078600010B50446FFF7E2FF20461C21FCF717FC89
:10787000204610BD30B587B0044601AD6846FFF71D
:10788000E9FC0FCD04340FC42B68237007B030BD62
:1078900070B54D69054B04468C3544F8043B0646EB
:1078A0000FCD0FC42B682370304670BDD4A00B00E1
:1078B0002DE9F0439846036893B00D460024DB6A37
:1078C00006461746984728466B46224621460094AE
:1078D000FFF78AF90546002863D1009B002B4BD0A7
:1078E0005B69002B48D006A8FFF764FC009B5C692D
:1078F0006378022B04D1211D06A8FFF7BBFF26E009
:107900000A2B24D11122294601A801F049FAA368C3
:10791000002B38D004F108030DF1040C183418685A
:107920005968624603C20833A3429446F7D106233E
:1079300001A90CA88DF81430FFF74AFC0DF1340CA6
:10794000BCE80F0007AC0FC4DCF80030237006A8B9
:10795000FFF750FC80B1336807ADD3F82090124B8D
:107960000C930FCD0DAC0FC42B6823703A464346E1
:107970000CA93046C84705460098FFF72DF9284660
:1079800013B0BDE8F083E368002BC3D14FF6FF705E
:10799000D4F81090FFF710F98145BBD104F1140120
:1079A000AAE72546E8E700BFD4A00B0038B5436935
:1079B0001A68002A054610DAB3F88620B3F8843036
:1079C0009A420AD103681B699847044628B92B6874
:1079D0002846DB6A9847204638BD0120FCE710B5F1
:1079E0004369B3F88620B3F884309A42044605D040
:1079F0006369B3F884201344187910BD03681B69C8
:107A000098470028F4D14FF0FF30F6E7F8B5436906
:107A10001746B3F88620B3F884309A4205460E46DE
:107A200016D06969B1F88430B1F88640E41ABC42D6
:107A300028BF3C46043322461944304601F0A2F9DF
:107A40006A69B2F884302344A2F884302046F8BD35
:107A500003681B6998470028E3D14FF0FF34F5E72E
:107A600042690023A2F884304269A2F88630704748
:107A70002DE9F0411F4603680C46DB6A8AB00546D3
:107A800016469847237DD5F81480042B0CBF02209E
:107A90000A2006220121FFF7D7F8C8F800006B6919
:107AA0001B68002B08DA2B682846DB6A00249847FD
:107AB00020460AB0BDE8F0812846FFF7D1FFB7B1F4
:107AC000002303A9F8B20393ADF81030FFF764F870
:107AD0000028E8D1686906230093006803AB41F2EF
:107AE0000B0240F6FF71FFF787F80028DBD11C225C
:107AF000002103A801F054F9237D042B1DD14FF47C
:107B000007733046ADF80C30FFF75EF8ADF80E00A5
:107B10006068FFF751F804906B691C22186803A98C
:107B2000FFF77AF80028BED104340FCC6D698C358C
:107B30000FC523682B700124BAE740F61C2330469A
:107B4000ADF80C30FFF740F805AEADF80E00231D80
:107B500004F1140718685968324603C20833BB425F
:107B60001646F7D1D8E7000030B54269B2F8863042
:107B70008BB004462BB1B2F884209A4201D1FFF7B2
:107B80006FFF61690868002818DBB1F886507F2D07
:107B900014D804310823C5F180022944FFF744F8C2
:107BA000002813DD6369B3F886200AB9A3F884209E
:107BB0006369B3F886201044A3F886006369B3F8BC
:107BC0008600B3F88430C01A0BB030BDFFF7C8F997
:107BD00003680B2BF2D0FFF7C3F903680B2BEDD032
:107BE00020230025CDE90235FFF7BAF90368019398
:107BF000084B0949009302AA2B463220FFF7ECF804
:107C000063691868FFF700F863694FF0FF321A6084
:107C1000D4E700BF2FA10B0028A10B0010B54369CA
:107C200004461868002801DBFEF7EEFF63694FF099
:107C3000FF321A606069112200218C3001F0B0F827
:107C40002046BDE81040FFF70BBF10B500230446E7
:107C50000160C0F884308830FFF7ACFA204610BDD0
:107C600073B500234FF47A72C0E901320E4A036102
:107C7000026043610446AC200191FCF70CFA051E3A
:107C800005F10C0608D00123C5E90133074B019922
:107C90002B603046FFF7D9FF2046C4E90565FFF7A2
:107CA000DFFE02B070BD00BF64A10B0048A10B0055
:107CB00010B54FF0FF310446FFF7D2FF204610BD4C
:107CC00010B504460068002801DBFEF79DFF204642
:107CD00010BD0C30FFF7F4BF024B1A68024B1A605C
:107CE000704700BF78E50320FCE60320704741742D
:107CF000704708B5007CFFF71FF820EAE07008BD68
:107D000008B5007CFEF7F0FF20EAE07008BD08B57A
:107D1000007CFEF7F9FF40EAE07008BD08B5007C82
:107D2000FEF7EAFF40EAE07008BD007CFEF7F4BF12
:107D300037B5457C04462DB1207C03B0BDE830400A
:107D4000FEF7CABF007C0191FEF7F6FF00280199FB
:107D5000F2DC284603B030BD10B514210446FCF710
:107D60009EF9204610BD000010B54FF47A7304460A
:107D7000084611460022C4E90123044B2360012375
:107D800020746374FEF7E0FF204610BDCCA10B0009
:107D9000417470477047704708B50021007CFEF7BA
:107DA000FBFF40EAE07008BD08B50121007CFEF74A
:107DB000F3FF40EAE07008BD08B5007CFEF7E4FF81
:107DC00020EAE07008BD08B5007CFEF7D5FF20EA88
:107DD000E07008BD13B50446007C0191FEF7D4FFA6
:107DE0000028019901DC607C20B1207CFEF7DCFFDB
:107DF00020EAE07002B010BD007CFEF7DDBF10B5D8
:107E000014210446FCF74BF9204610BD10B54FF481
:107E10007A73044608460021C4E90113044B236029
:107E20000123207463741146FEF796FF204610BDAF
:107E3000FCA10B00007C0022FEF796BF10B51422B7
:107E40000446002100F0ACFF204610BD10B50F4CD9
:107E500088B003A8FFF7F2FF2178BFF35B8F11F022
:107E600001010FD120460191FCF728F9019948B191
:107E700003AA0748FFF7CAFF2046FCF724F9054884
:107E800000F072FF024808B010BD00BF00E70320F9
:107E900004E70320957D0B00002240681146FEF7A1
:107EA000F7BF002240681146FFF712B80022406871
:107EB0001146FFF71DB840680022FFF711B840686F
:107EC000002281F00101FEF7FBBF002340681A4643
:107ED0001946FEF7EDBF002340681A461946FEF723
:107EE000DFBF002240681146FEF7C2BF4068002293
:107EF0000221FEF7C5BF002340681A46FEF7B0BF57
:107F0000024B04225A60024A1A60704718E70320A5
:107F10002CA20B00014B1860704700BF7CE50320CA
:107F200008B50B4B43B1FFF791FF03681B699847F6
:107F3000002801DDAFF30080064B43B100F096F955
:107F400003681B699847002801DDAFF3008008BD76
:107F5000000000000000000008B5FFF7E1FFFEF799
:107F600073FD014B186008BD28E703200548064A49
:107F7000064908B5121A00F005FF054B054A1A60BC
:107F800008BD00BF00F4032004F4032014A50B0077
:107F900000F403201E1C279A07B5002300931A46FD
:107FA0006FF07701FEF742FF03B05DF804FB0000BD
:107FB00007B543880A2B08D0502B0BD1094B1B68FF
:107FC0004BB103B05DF804EB1847FFF7E5FF03B0D2
:107FD0005DF804FB002300931A466FF07701FEF76B
:107FE00025FFF4E724E7032010B512480021FEF72F
:107FF000C7FF114B1A68114B9A42114B0CBF01225B
:1080000000221A7001D0FFF7B1FFFEF70DFD044604
:1080100000F0CEFE0B4B13B12046AFF300800021E1
:108020000848FEF715FFBDE8104007480021FEF79D
:10803000F3BE00BF157F0B0000F403201E1C279A1F
:1080400020E7032000000000B17F0B00232813B5B8
:1080500002D9002002B010BDA0F10B03022B1AD8E8
:10806000174C2178BFF35B8F11F001010BD1204633
:108070000191FCF723F8019928B11248FFF754FA4F
:108080002046FCF720F80F4B1878FEF7FDFD00287E
:10809000DFD10120DEE7012809D800F0A7F8002190
:1080A000007CFEF761FD80F00100C0B2D2E7093824
:1080B0000128EED800F0DAF8007CFEF735FEF2E792
:1080C000B8E60320BCE60320232838B504460D4655
:1080D0000AD8FF2908D0FFF7B9FF28B12946204662
:1080E000BDE83840FEF7C0BC38BD38B504460D4683
:1080F000FEF7C2FCFF2810D0062804D84D2323FA2F
:1081000000F0C30709D42046FFF7A0FF28B1294695
:108110002046BDE83840FEF7B7BC38BD10B5044670
:10812000FEF7AAFC031FDBB2012B08D92046FFF79C
:108130008DFF20B12046BDE81040FEF7ADBC002009
:1081400010BD0D2810B504469CBF0E34A4B22046C5
:10815000FFF77CFF50B103212046FEF77DFC03288A
:1081600004D12046BDE81040FEF7A6BC002010BD9B
:1081700038B504460D46FFF769FFF0B104212046EB
:10818000FEF76AFC042805D1A9B22046BDE83840B4
:10819000FEF78ABC02212046FEF75EFC02280CD1C5
:1081A0002046FEF769FC012801D0042805D12946A4
:1081B0002046BDE83840FEF787BC38BD7047000058
:1081C00038B52025142304460360856005610649FF
:1081D000284600F06FF804496060284600F06AF80D
:1081E000E060204638BD00BF60A20B0030B50E4DE8
:1081F0002978BFF35B8F11F0010487B011D12846B5
:10820000FBF75CFF68B101A8FFF7DAFF01AA21467E
:108210000648FEF73FFF2846FBF755FF044800F0ED
:10822000A3FD024807B030BD2CE7032030E7032050
:10823000BD810B007047000038B5044614252A465E
:10824000002100F0ADFD2580402507492581284605
:10825000258200F02FF804496060284600F02AF8D3
:10826000E060204638BD00BF60A20B0030B50E4D67
:108270002978BFF35B8F11F0010487B011D1284634
:10828000FBF71CFF68B101A8FFF7D6FF01AA214642
:108290000648FFF769FD2846FBF715FF044800F084
:1082A00063FD024807B030BD44E7032048E70320E0
:1082B00035820B00FBF7F1BE014900F0F9B800BFB1
:1082C0007CA20B007FB500241023CDE902340368A3
:1082D00015469E6912686B46CDE90044B0479DF88B
:1082E000043003F00603062B03BF009B2B60012024
:1082F000204604B070BD0098904214BF01200620B3
:108300007047000010B5034B0360044600F0CDF841
:10831000204610BDBCA20B0010B50446FFF7F2FFCB
:1083200020460821FBF7BBFE204610BD2DE9F04199
:108330001F46DDE90834DDF81880984506461546E5
:1083400007D1079900F0B4F818B165710020BDE8B5
:10835000F0813946304600F0ABF80028F6D0012312
:10836000C4F800802571A371F0E738B515461C46A6
:1083700000F09EF820B10823E360062325602371F6
:1083800038BD73B505460C4601921E4600F090F8C4
:1083900050B9032E08D82368019A5B692946204604
:1083A00002B0BDE87040184702B070BD10B5034B75
:1083B00003600446FFF7A6FF204610BD1CA30B0078
:1083C00010B50446FFF7F2FF20460C21FBF767FECD
:1083D000204610BDF7B5089F974205460E46144645
:1083E0000AD0A86802680897156A31462246AC464A
:1083F00003B0BDE8F04060471946019300F058F81B
:10840000019B0028EDD0062003B0F0BD2DE9F14F0F
:108410000D461946DDE90A4BDDE90CA681461746F3
:10842000984600F045F890B1002D3460377109DBB3
:1084300061198A450CBF06210121B171002001B0EC
:10844000BDE8F08F0235F9D10123B371F6E7544549
:1084500006D15946484600F02BF808B17771EDE790
:10846000D9F808000368CDE90CA6CDE90A4BDC6910
:108470003A4643462946A44601B0BDE8F04F60475E
:108480002DE9F04107460C4615461E46FFF76DFFE5
:1084900048B9B86803689F692A4633462146BC46F6
:1084A000BDE8F0416047BDE8F081704700207047AB
:1084B000814208B50ED0406803782A2B0CD0496859
:1084C0000B782A2B08BF013100F0A0FCB0FA80F035
:1084D000400908BD0120FCE70020FAE753EC102B0F
:1084E000C3F30A5CACF2FF31132910B510EE100A89
:1084F0009E4622DC002909DB1F4C44FA01FC03EAFA
:108500000C04204310D143EC102B10BD03F0004E9F
:10851000013104BF4EF07F5E4EF4401E00207346D2
:10852000024643EC102B10BD4FF4002343FA01F137
:108530008E442EEA0C0E0020F1E7332908DDB1F558
:10854000806FE0D1194600F01FF841EC100B10BD10
:10855000ACF2134C4FF0FF3424FA0CFC12EA0C0F6F
:10856000D1D00123C1F1330103FA01F1401828BF32
:108570009E4420EA0C00D2E7FFFF0F0081F000418B
:1085800002E000BF83F0004330B54FEA41044FEAF8
:10859000430594EA050F08BF90EA020F1FBF54EA93
:1085A000000C55EA020C7FEA645C7FEA655C00F02F
:1085B000E2804FEA5454D4EB5555B8BF6D420CDD00
:1085C0002C4480EA020281EA030382EA000083EA83
:1085D000010180EA020281EA0303362D88BF30BD23
:1085E00011F0004F4FEA01314FF4801C4CEA113179
:1085F00002D0404261EB410113F0004F4FEA0333D8
:108600004CEA133302D0524263EB430394EA050F62
:1086100000F0A780A4F10104D5F1200E0DDB02FAD1
:108620000EFC22FA05F2801841F1000103FA0EF265
:10863000801843FA05F359410EE0A5F120050EF12B
:10864000200E012A03FA0EFC28BF4CF0020C43FA5C
:1086500005F3C01851EBE37101F0004507D54FF069
:10866000000EDCF1000C7EEB00006EEB0101B1F5B9
:10867000801F1BD3B1F5001F0CD349085FEA3000FF
:108680004FEA3C0C04F101044FEA445212F5800F0A
:1086900080F09A80BCF1004F08BF5FEA500C50F1A7
:1086A000000041EB045141EA050130BD5FEA4C0C8A
:1086B000404141EB0101013C28BFB1F5801FE9D2E7
:1086C00091F0000F04BF01460020B1FA81F308BF0A
:1086D0002033A3F10B03B3F120020CDA0C3208DDD6
:1086E00002F1140CC2F10C0201FA0CF021FA02F1B1
:1086F0000CE002F11402D8BFC2F1200C01FA02F121
:1087000020FA0CFCDCBF41EA0C019040E41AA2BF45
:1087100001EB0451294330BD6FEA04041F3C1CDA0D
:108720000C340EDC04F11404C4F1200220FA04F02D
:1087300001FA02F340EA030021FA04F345EA0301D7
:1087400030BDC4F10C04C4F1200220FA02F001FA99
:1087500004F340EA0300294630BD21FA04F029461B
:1087600030BD94F0000F83F4801306BF81F48011B4
:108770000134013D4EE77FEA645C18BF7FEA655C27
:1087800029D094EA050F08BF90EA020F05D054EAF9
:10879000000C04BF1946104630BD91EA030F1EBFFE
:1087A0000021002030BD5FEA545C05D14000494102
:1087B00028BF41F0004130BD14F580043CBF01F5F5
:1087C000801130BD01F0004545F0FE4141F47001DB
:1087D0004FF0000030BD7FEA645C1ABF19461046B6
:1087E0007FEA655C1CBF0B46024650EA013406BFB7
:1087F00052EA033591EA030F41F4002130BD00BF76
:1088000090F0000F04BF0021704730B54FF4806432
:1088100004F132044FF000054FF0000150E700BFB3
:1088200090F0000F04BF0021704730B54FF4806412
:1088300004F1320410F0004548BF40424FF00001FF
:108840003EE700BF42004FEAE2014FEA31014FEA42
:1088500002701FBF12F07F4393F07F4F81F0605191
:10886000704732F07F4208BF704793F07F4F04BFDC
:1088700041F40021704730B54FF4607401F00045B9
:1088800021F000411CE700BF50EA010208BF704719
:1088900030B54FF000050AE050EA010208BF70470A
:1088A00030B511F0004502D5404261EB41014FF473
:1088B000806404F132045FEA915C3FF4D8AE4FF07B
:1088C00003025FEADC0C18BF03325FEADC0C18BF5E
:1088D000033202EBDC02C2F1200300FA03FC20FAAF
:1088E00002F001FA03FE40EA0E0021FA02F11444FC
:1088F000BDE600BF70B54FF0FF0C4CF4E06C1CEA15
:1089000011541DBF1CEA135594EA0C0F95EA0C0F85
:1089100000F0DEF82C4481EA030621EA4C5123EAF8
:108920004C5350EA013518BF52EA033541F4801127
:1089300043F4801338D0A0FB02CE4FF00005E1FBDA
:1089400002E506F00042E0FB03E54FF00006E1FB24
:1089500003569CF0000F18BF4EF0010EA4F1FF0467
:10896000B6F5007F64F5407404D25FEA4E0E6D41A7
:1089700046EB060642EAC62141EA55514FEAC520B8
:1089800040EA5E504FEACE2EB4F1FD0C88BFBCF534
:10899000E06F1ED8BEF1004F08BF5FEA500E50F1E5
:1089A000000041EB045170BD06F0004646EA0101AB
:1089B00040EA020081EA0301B4EB5C04C2BFD4EBDD
:1089C0000C0541EA045170BD41F480114FF0000ED6
:1089D000013C00F3AB8014F1360FDEBF002001F044
:1089E000004170BDC4F10004203C35DA0C341BDCBE
:1089F00004F11404C4F1200500FA05F320FA04F090
:108A000001FA05F240EA020001F0004221F00041C3
:108A100010EBD37021FA04F642EB06015EEA430E36
:108A200008BF20EAD37070BDC4F10C04C4F1200566
:108A300000FA04F320FA05F001FA04F240EA020019
:108A400001F0004110EBD37041F100015EEA430EEA
:108A500008BF20EAD37070BDC4F1200500FA05F20A
:108A60004EEA020E20FA04F301FA05F243EA020389
:108A700021FA04F001F0004121FA04F220EA020098
:108A800000EBD3705EEA430E08BF20EAD37070BDDE
:108A900094F0000F0FD101F00046400041EB0101BE
:108AA00011F4801F08BF013CF7D041EA060195F0A0
:108AB000000F18BF704703F00046520043EB03035A
:108AC00013F4801F08BF013DF7D043EA0603704747
:108AD00094EA0C0F0CEA135518BF95EA0C0F0CD052
:108AE00050EA410618BF52EA4306D1D181EA030198
:108AF00001F000414FF0000070BD50EA410606BF92
:108B00001046194652EA430619D094EA0C0F02D1D6
:108B100050EA013613D195EA0C0F05D152EA03361B
:108B20001CBF104619460AD181EA030101F0004139
:108B300041F0FE4141F470014FF0000070BD41F082
:108B4000FE4141F4780170BD70B54FF0FF0C4CF45C
:108B5000E06C1CEA11541DBF1CEA135594EA0C0F7B
:108B600095EA0C0F00F0A7F8A4EB050481EA030EC8
:108B700052EA03354FEA013100F088804FEA0333AF
:108B80004FF0805545EA131343EA12634FEA02227D
:108B900045EA111545EA10654FEA00260EF000413E
:108BA0009D4208BF964244F1FD0404F5407402D290
:108BB0005B084FEA3202B61A65EB03055B084FEA21
:108BC00032024FF480104FF4002CB6EB020E75EB1E
:108BD000030E22BFB61A754640EA0C005B084FEA46
:108BE0003202B6EB020E75EB030E22BFB61A7546C3
:108BF00040EA5C005B084FEA3202B6EB020E75EB0E
:108C0000030E22BFB61A754640EA9C005B084FEA85
:108C10003202B6EB020E75EB030E22BFB61A754692
:108C200040EADC0055EA060E18D04FEA051545EA81
:108C300016754FEA06164FEAC30343EA52734FEA2A
:108C4000C2025FEA1C1CC0D111F4801F0BD141EAA3
:108C500000014FF000004FF0004CB6E711F4801F08
:108C600004BF01430020B4F1FD0C88BFBCF5E06FE8
:108C70003FF6AFAEB5EB030C04BFB6EB020C5FEAF8
:108C8000500C50F1000041EB045170BD0EF0004E4D
:108C90004EEA113114EB5C04C2BFD4EB0C0541EA7F
:108CA000045170BD41F480114FF0000E013C90E67C
:108CB00045EA060E8DE60CEA135594EA0C0F08BF40
:108CC00095EA0C0F3FF43BAF94EA0C0F0AD150EA3F
:108CD00001347FF434AF95EA0C0F7FF425AF1046D2
:108CE00019462CE795EA0C0F06D152EA03353FF4FA
:108CF000FDAE1046194622E750EA410618BF52EA77
:108D000043067FF4C5AE50EA41047FF40DAF52EA4A
:108D100043057FF4EBAE12E74FEA410212F5001271
:108D200015D211D56FF47873B3EB625212D94FEAB2
:108D3000C12343F0004343EA505311F0004F23FA9C
:108D400002F018BF404270474FF00000704750EAF1
:108D5000013005D111F0004008BF6FF000407047AE
:108D60004FF00000704700BF002301461A46184626
:108D700000F0FEB80A22002100F0F0B80A2200211B
:108D800000F0ECB80A44914200F1FF3300D1704783
:108D900010B511F8014B03F8014F9142F9D110BD04
:108DA00002440346934200D1704703F8011BF9E7E0
:108DB00038B5104B1D68AB6B0446B3B91820FEF7ED
:108DC000AFF80246A86320B90B4B0C484221FEF7CE
:108DD000CFF80B490B4BC0E900130B4B83600B23FF
:108DE000838100210120C2E90401AB6B00221C61D8
:108DF0005A6138BD7CE5032055A30B006CA30B0022
:108E00000E33CDAB34126DE6ECDE050010F8012B0D
:108E100011F8013B012A28BF9A42F7D0D01A7047B7
:108E2000034613F8012B002AFBD1181A01387047AA
:108E300010B50139034632B111F8014F03F8014B67
:108E4000013A002CF7D11A440021934200D110BD01
:108E500003F8011BF9E70000012B2DE9F04701D0D1
:108E6000242B06D9FEF77CF8162303600020BDE80A
:108E7000F087DFF8E4C00D462E4615F8014B14F8D4
:108E80000C7017F00807F7D12D2C32D12C78012760
:108E9000B51C002B5BD0102B09D1302C07D12C78BE
:108EA00004F0DF04582C4DD16C781023023507F103
:108EB000004808F1FF384FF0000CB8FBF3F96646A4
:108EC00003FB198AA4F1300EBEF1090F16D87446BF
:108ED000A34224DDBCF1000F1EDBB1451CD301D140
:108EE000A24519DB06FB03464FF0010C15F8014BB8
:108EF000E8E72B2C04BF2C78B51CCAE7A4F1410E7F
:108F0000BEF1190F01D8373CE2E7A4F1610EBEF1C2
:108F1000190F04D8573CDBE74FF0FF3CE6E7BCF104
:108F2000000F05DA22230360464642B930469EE729
:108F300007B17642002AF9D0BCF1000F00D0691EBB
:108F40001160F3E73024002BB1D10823AFE7302CB8
:108F5000A5D00A23ABE700BFC6A30B0013460A4601
:108F6000014602480068FFF777BF00BF7CE5032099
:108F70002DE9F843DFF8B8800646D8F800001F4610
:108F80000D46914600F056F8254B1C6834B9254C27
:108F90001C60254B13B11B68C4F8883063681F2B15
:108FA00007DDD8F8000000F047F84FF0FF30BDE8CB
:108FB000F8834EB3D4F8880088B91C4B23B9D8F88D
:108FC000000000F038F8F0E74FF48470FDF7A8FFD8
:108FD0000028F4D00023C0E94033C4F88800636857
:108FE00040F8239001229A4000EB8301D0F8003131
:108FF0001343C0F80031022EC1F8807002BFD0F8D0
:1090000004311343C0F804316368D8F800005A1CD7
:109010000233626044F8235000F00EF80020C6E7E7
:10902000E8E703205CE7032000000000216F0B004D
:10903000E0E50320704770477047000021400B00B7
:109040005D400B0085400B0089400B0000000000D4
:1090500043616C6C206F6E2070757265207669724A
:109060007475616C00256900256C6900696E006F7C
:1090700075740070776D0064770061770076770013
:1090800052656C6561736500627574746F6E2E0055
:109090004C696768743A200067657639556C5748A3
:1090A000757053387943424A3277704458444E6D54
:1090B0003654484D75306F53002046002043004C15
:1090C0006967687420706F696E742070617373656E
:1090D000642E00626C6E6B696E660076657200319C
:1090E0002E312E3000682D626561740034350062C7
:1090F0007566662D696E0031303234006465760025
:109100005061727469636C65204172676F6E0062B2
:1091100075696C64004A756C20203420323032321C
:109120002032313A33343A3033000000000000007E
:10913000003E5B4F5B3E3E6B4F6B3E1C3E7C3E1CDD
:10914000183C7E3C181C577D571C1C5E7F5E1C0023
:10915000183C1800FFE7C3E7FF0018241800FFE7DA
:10916000DBE7FF30483A060E2629792926407F059D
:109170000507407F05253F5A3CE73C5A7F3E1C1CB3
:1091800008081C1C3E7F14227F22145F5F005F5F73
:1091900006097F017F006689956A6060606060945F
:1091A000A2FFA29408047E040810207E2010080864
:1091B0002A1C08081C2A08081E101010100C1E0C6F
:1091C0001E0C30383E3830060E3E0E060000000001
:1091D0000000005F00000007000700147F147F14E8
:1091E000242A7F2A1223130864623649562050002D
:1091F00008070300001C2241000041221C002A1C19
:109200007F1C2A08083E0808008070300008080803
:109210000808000060600020100804023E51494523
:109220003E00427F400072494949462141494D3341
:109230001814127F1027454545393C4A49493141A8
:10924000211109073649494936464949291E000076
:1092500014000000403400000008142241141414CB
:109260001414004122140802015909063E415D59B7
:109270004E7C1211127C7F494949363E41414122C0
:109280007F4141413E7F494949417F090909013EEA
:10929000414151737F0808087F00417F4100204011
:1092A000413F017F081422417F404040407F021C23
:1092B000027F7F0408107F3E4141413E7F0909093A
:1092C000063E4151215E7F09192946264949493206
:1092D00003017F01033F4040403F1F2040201F3FCC
:1092E0004038403F63140814630304780403615951
:1092F000494D43007F414141020408102000414193
:10930000417F04020102044040404040000307083E
:109310000020545478407F2844443838444444283A
:10932000384444287F385454541800087E090218E1
:10933000A4A49C787F0804047800447D4000204069
:10934000403D007F1028440000417F40007C0478AD
:1093500004787C080404783844444438FC182424F5
:109360001818242418FC7C08040408485454542475
:1093700004043F44243C4040207C1C2040201C3CF2
:109380004030403C44281028444C9090907C4464E9
:10939000544C44000836410000007700000041367C
:1093A000080002010204023C2623263C1EA1A16102
:1093B000123A4040207A3854545559215555794134
:1093C0002254547842215554784020545579400C09
:1093D0001E527212395555555939545454593955EC
:1093E0005454580000457C410002457D420001452F
:1093F0007C407D1211127DF0282528F07C545545C3
:10940000002054547C547C0A097F4932494949322E
:109410003A4444443A324A4848303A4141217A3A3F
:1094200042402078009DA0A07D3D4242423D3D400B
:1094300040403D3C24FF2424487E4943662B2FFCBA
:109440002F2BFF0929F620C0887E09032054547968
:10945000410000447D413048484A32384040227A39
:10946000007A0A0A727D0D19317D2629292F2826B6
:109470002929292630484D402038080808080808BE
:109480000808382F10C8ACBA2F102834FA00007B17
:10949000000008142A142222142A1408550055002A
:1094A00055AA55AA55AAFF55FF55FF000000FF0019
:1094B000101010FF00141414FF001010FF00FF1014
:1094C00010F010F0141414FC001414F700FF000046
:1094D000FF00FF1414F404FC141417101F10101FC5
:1094E000101F1414141F00101010F0000000001FB3
:1094F000101010101F10101010F010000000FF10BE
:109500001010101010101010FF10000000FF1400B9
:1095100000FF00FF00001F10170000FC04F41414EB
:109520001710171414F404F40000FF00F7141414B7
:1095300014141414F700F7141414171410101F1037
:109540001F141414F4141010F010F000001F101F5A
:109550000000001F14000000FC140000F010F010C8
:1095600010FF10FF141414FF141010101F0000003F
:1095700000F010FFFFFFFFFFF0F0F0F0F0FFFFFF43
:109580000000000000FFFF0F0F0F0F0F384444389A
:1095900044FC4A4A4A347E02020606027E027E02E9
:1095A00063554941633844443C04407E201E2006F4
:1095B000027E020299A5E7A5991C2A492A1C4C7231
:1095C00001724C304A4D4D303048784830BC625AB8
:1095D000463D3E494949007E0101017E2A2A2A2A48
:1095E0002A44445F444440514A444040444A514024
:1095F0000000FF0103E080FF000008086B6B0836E5
:1096000012362436060F090F060000181800000055
:109610001010003040FF0101001F01011E00191D44
:109620001712003C3C3C3C00000000000000000021
:109630000000000000000000000000009D5A0B0028
:10964000E9730B00A5400B00A3540B00A5540B00BD
:10965000D7540B00B3540B00C5540B00E5530B005B
:10966000A3540B00CF560B00CD560B00EF540B004C
:109670002D550B0067550B00AD550B00C9550B0060
:109680004D560B0064656661756C7420004D534245
:10969000004C5342003C53504953657474696E67E3
:1096A000732064656661756C743E003C5350495389
:1096B000657474696E677320257325752025732082
:1096C0004D4F444525753E0000000000000000009D
:1096D000D95B0B00AB5B0B00AD5B0B000000000027
:1096E0000001800000000000000000000380000076
:1096F0000000000000000007C000000000000000A3
:10970000000007C00000000000000000000FC000C3
:1097100000000000000000001FE00000000000004A
:109720000000001FE00000000000000000003FE01B
:109730000000000000000000003FF00000000000FA
:10974000000000007FF0000000000000001FF87F14
:10975000F0000000000000003FFE7FF0000000006D
:109760000000003FFF7FF0000000000000001FFF2E
:10977000FBE0000000000000000FFFF9FFC0000048
:10978000000000000FFFF9FFF800000000000007D4
:10979000FFF1FFFF00000000000003FC73FFFF80EB
:1097A000000000000001FE3FFFFF800000000000FD
:1097B00000FF1E0FFF000000000000007FFE1FFCE6
:1097C000000000000000003FFFFFF8000000000064
:1097D00000000FDFFFE0000000000000001F19FF85
:1097E000C0000000000000003F3CFF00000000003F
:1097F0000000007E7CF800000000000000007FFEFA
:109800007C0000000000000000FFFFFC00000000E2
:1098100000000000FFFFFE0000000000000000FF4D
:10982000FFFE0000000000000001FFEFFE0000004E
:109830000000000001FFCFFE000000000000000358
:10984000FF07FE0000000000000003FC07FE000010
:10985000000000000003F003FE0000000000000014
:10986000018000FE000000000000000000007E00FB
:109870000000000000000000003E000000000000AA
:10988000000000000C000000000000078000FC0049
:109890000003C0000000078001FC000003C00000BE
:1098A00000078001FC000003C0000000078001E009
:1098B0000000001E000000078001E00000001E0004
:1098C0007FE3F79FF9FDE7787BDFC0FFF7FFBFFD80
:1098D000FDFF787BDFC0FFF7FFBFFDFDFF787BDF7B
:1098E000C0F0F787BC3DE1FF787BDE00F0F787BC76
:1098F0003DE1F0787BDE0000F787803DE1E0787B9A
:10990000DE007FF7879FFDE1E0787BDE00FFF787D1
:10991000BFFDE1E0787BDE00F0F787BC3DE1E07859
:109920007BDE00F0F787BC3DE1E0787BDE00F0F7FE
:1099300087BC3DE1E0787BDE00FFF7FFBFFDE1E0A3
:109940007FFBDFC0FFF7FFBFFDE1E07FFBDFC07CF7
:10995000F3F39F3DE1E03E7BCFC00000000000003C
:109960000000000000FFFFFFFFFFFFFFFFFFFFC041
:10997000FFFFFFFFFD68DB111A31C0FFFFFFFFFD96
:109980002B5AFB6AEFC0FFFFFFFFFD4B5B3B1A3317
:10999000C0FFFFFFFFFD6B5BDB6AFDC000006000E6
:1099A00000000000000000000000000000E00000D7
:1099B000000000000000000000000001E0000000C6
:1099C0000000000000000000000001F000000000A6
:1099D00000000000000000000003F0000000000094
:1099E000000000000000000007F000000000000080
:1099F0000000000000000007F80000000000000068
:109A00000000000000000FF800000003C0007E000E
:109A10000001E0007F0FF800000003C000FE00001E
:109A200001E000FFEFF800000003C000FE000001AD
:109A3000E000FFFFF800000003C000F00000000F8E
:109A4000007FFE7FC0000003C000F00000000F0098
:109A50003FFE7FF83FF1FBCFFCFEF3BC3DEFE01F84
:109A6000FE7FFF7FFBFFDFFEFEFFBC3DEFE01FC67A
:109A7000FFFF7FFBFFDFFEFEFFBC3DEFE00FE3C714
:109A8000FE787BC3DE1EF0FFBC3DEF0007FF87FCC6
:109A9000787BC3DE1EF0F83C3DEF0001FFFFF000D5
:109AA0007BC3C01EF0F03C3DEF0001F37FE03FFBC5
:109AB000C3CFFEF0F03C3DEF0003E33F807FFBC3EC
:109AC000DFFEF0F03C3DEF0007E73C00787BC3DEB3
:109AD0001EF0F03C3DEF0007FFBE00787BC3DE1EAA
